{
  "_format": "hh-sol-artifact-1",
  "contractName": "LookUpContract",
  "sourceName": "contracts/LookUpContract.sol",
  "abi": [
    {
      "anonymous": false,
      "inputs": [
        {
          "indexed": true,
          "internalType": "address",
          "name": "donor",
          "type": "address"
        },
        {
          "indexed": false,
          "internalType": "uint256",
          "name": "amount",
          "type": "uint256"
        }
      ],
      "name": "DonationReceived",
      "type": "event"
    },
    {
      "anonymous": false,
      "inputs": [
        {
          "indexed": true,
          "internalType": "uint256",
          "name": "tokenId",
          "type": "uint256"
        },
        {
          "indexed": true,
          "internalType": "address",
          "name": "owner",
          "type": "address"
        },
        {
          "indexed": false,
          "internalType": "string",
          "name": "tokenAddress",
          "type": "string"
        }
      ],
      "name": "ERC20TokenListed",
      "type": "event"
    },
    {
      "inputs": [],
      "name": "_donationIndex",
      "outputs": [
        {
          "internalType": "uint256",
          "name": "",
          "type": "uint256"
        }
      ],
      "stateMutability": "view",
      "type": "function"
    },
    {
      "inputs": [],
      "name": "_tokenIndex",
      "outputs": [
        {
          "internalType": "uint256",
          "name": "",
          "type": "uint256"
        }
      ],
      "stateMutability": "view",
      "type": "function"
    },
    {
      "inputs": [],
      "name": "contractOwner",
      "outputs": [
        {
          "internalType": "address payable",
          "name": "",
          "type": "address"
        }
      ],
      "stateMutability": "view",
      "type": "function"
    },
    {
      "inputs": [
        {
          "internalType": "address",
          "name": "_owner",
          "type": "address"
        },
        {
          "internalType": "string",
          "name": "_tokenSupply",
          "type": "string"
        },
        {
          "internalType": "string",
          "name": "_tokenName",
          "type": "string"
        },
        {
          "internalType": "string",
          "name": "_tokenSymbol",
          "type": "string"
        },
        {
          "internalType": "string",
          "name": "_tokenAddress",
          "type": "string"
        },
        {
          "internalType": "string",
          "name": "_tokenTransactionHash",
          "type": "string"
        },
        {
          "internalType": "string",
          "name": "_tokenCreatedDate",
          "type": "string"
        }
      ],
      "name": "createERC20Token",
      "outputs": [
        {
          "internalType": "uint256",
          "name": "",
          "type": "uint256"
        },
        {
          "internalType": "address",
          "name": "",
          "type": "address"
        },
        {
          "internalType": "string",
          "name": "",
          "type": "string"
        },
        {
          "internalType": "string",
          "name": "",
          "type": "string"
        },
        {
          "internalType": "string",
          "name": "",
          "type": "string"
        },
        {
          "internalType": "string",
          "name": "",
          "type": "string"
        }
      ],
      "stateMutability": "nonpayable",
      "type": "function"
    },
    {
      "inputs": [],
      "name": "donate",
      "outputs": [],
      "stateMutability": "payable",
      "type": "function"
    },
    {
      "inputs": [],
      "name": "getAllERC20TokenListed",
      "outputs": [
        {
          "components": [
            {
              "internalType": "uint256",
              "name": "tokenId",
              "type": "uint256"
            },
            {
              "internalType": "address",
              "name": "owner",
              "type": "address"
            },
            {
              "internalType": "string",
              "name": "tokenSupply",
              "type": "string"
            },
            {
              "internalType": "string",
              "name": "tokenName",
              "type": "string"
            },
            {
              "internalType": "string",
              "name": "tokenSymbol",
              "type": "string"
            },
            {
              "internalType": "string",
              "name": "tokenAddress",
              "type": "string"
            },
            {
              "internalType": "string",
              "name": "tokenTransactionHash",
              "type": "string"
            },
            {
              "internalType": "string",
              "name": "tokenCreatedDate",
              "type": "string"
            }
          ],
          "internalType": "struct LookUpContract.ERC20Token[]",
          "name": "",
          "type": "tuple[]"
        }
      ],
      "stateMutability": "view",
      "type": "function"
    },
    {
      "inputs": [],
      "name": "getContractBalance",
      "outputs": [
        {
          "internalType": "uint256",
          "name": "",
          "type": "uint256"
        }
      ],
      "stateMutability": "view",
      "type": "function"
    },
    {
      "inputs": [],
      "name": "getDonations",
      "outputs": [
        {
          "components": [
            {
              "internalType": "uint256",
              "name": "donationId",
              "type": "uint256"
            },
            {
              "internalType": "address",
              "name": "donor",
              "type": "address"
            },
            {
              "internalType": "uint256",
              "name": "amount",
              "type": "uint256"
            }
          ],
          "internalType": "struct LookUpContract.Donation[]",
          "name": "",
          "type": "tuple[]"
        }
      ],
      "stateMutability": "view",
      "type": "function"
    },
    {
      "inputs": [],
      "name": "getListingPrice",
      "outputs": [
        {
          "internalType": "uint256",
          "name": "",
          "type": "uint256"
        }
      ],
      "stateMutability": "view",
      "type": "function"
    },
    {
      "inputs": [
        {
          "internalType": "uint256",
          "name": "_tokenId",
          "type": "uint256"
        }
      ],
      "name": "getSingleERC20Token",
      "outputs": [
        {
          "internalType": "uint256",
          "name": "",
          "type": "uint256"
        },
        {
          "internalType": "address",
          "name": "",
          "type": "address"
        },
        {
          "internalType": "string",
          "name": "",
          "type": "string"
        },
        {
          "internalType": "string",
          "name": "",
          "type": "string"
        },
        {
          "internalType": "string",
          "name": "",
          "type": "string"
        },
        {
          "internalType": "string",
          "name": "",
          "type": "string"
        },
        {
          "internalType": "string",
          "name": "",
          "type": "string"
        },
        {
          "internalType": "string",
          "name": "",
          "type": "string"
        }
      ],
      "stateMutability": "view",
      "type": "function"
    },
    {
      "inputs": [
        {
          "internalType": "address",
          "name": "_owner",
          "type": "address"
        }
      ],
      "name": "getUserTokens",
      "outputs": [
        {
          "components": [
            {
              "internalType": "uint256",
              "name": "tokenId",
              "type": "uint256"
            },
            {
              "internalType": "address",
              "name": "owner",
              "type": "address"
            },
            {
              "internalType": "string",
              "name": "tokenSupply",
              "type": "string"
            },
            {
              "internalType": "string",
              "name": "tokenName",
              "type": "string"
            },
            {
              "internalType": "string",
              "name": "tokenSymbol",
              "type": "string"
            },
            {
              "internalType": "string",
              "name": "tokenAddress",
              "type": "string"
            },
            {
              "internalType": "string",
              "name": "tokenTransactionHash",
              "type": "string"
            },
            {
              "internalType": "string",
              "name": "tokenCreatedDate",
              "type": "string"
            }
          ],
          "internalType": "struct LookUpContract.ERC20Token[]",
          "name": "",
          "type": "tuple[]"
        }
      ],
      "stateMutability": "view",
      "type": "function"
    },
    {
      "inputs": [],
      "name": "listingPrice",
      "outputs": [
        {
          "internalType": "uint256",
          "name": "",
          "type": "uint256"
        }
      ],
      "stateMutability": "view",
      "type": "function"
    },
    {
      "inputs": [
        {
          "internalType": "uint256",
          "name": "_listingPrice",
          "type": "uint256"
        }
      ],
      "name": "updatingListPrice",
      "outputs": [],
      "stateMutability": "payable",
      "type": "function"
    },
    {
      "inputs": [],
      "name": "withdraw",
      "outputs": [],
      "stateMutability": "nonpayable",
      "type": "function"
    }
  ],
  "bytecode": "0x6080604052731633b8595ed0847993801600c68e635fb32724d76000806101000a81548173ffffffffffffffffffffffffffffffffffffffff021916908373ffffffffffffffffffffffffffffffffffffffff1602179055506658d15e1762800060015534801561006f57600080fd5b506127f38061007f6000396000f3fe6080604052600436106100dd5760003560e01c80639200b9611161007f578063c78f19f911610059578063c78f19f9146102af578063ce606ee0146102da578063e25f841614610305578063ed88c68e14610330576100dd565b80639200b961146101fe578063a581889a14610242578063b5c6e21f14610284576100dd565b80633ccfd60b116100bb5780633ccfd60b14610154578063519dc8d21461016b5780635b7af131146101a85780636f9fb98a146101d3576100dd565b806312e85585146100e257806316e5f7b91461010d5780631ec4a8b514610129575b600080fd5b3480156100ee57600080fd5b506100f761033a565b604051610104919061198f565b60405180910390f35b610127600480360381019061012291906119ea565b610344565b005b34801561013557600080fd5b5061013e6103dc565b60405161014b919061198f565b60405180910390f35b34801561016057600080fd5b506101696103e2565b005b34801561017757600080fd5b50610192600480360381019061018d9190611a75565b610522565b60405161019f9190611ce5565b60405180910390f35b3480156101b457600080fd5b506101bd610ad7565b6040516101ca9190611ce5565b60405180910390f35b3480156101df57600080fd5b506101e8610f80565b6040516101f5919061198f565b60405180910390f35b34801561020a57600080fd5b50610225600480360381019061022091906119ea565b611017565b604051610239989796959493929190611d60565b60405180910390f35b34801561024e57600080fd5b5061026960048036038101906102649190611f3d565b611456565b60405161027b96959493929190612087565b60405180910390f35b34801561029057600080fd5b506102996115c0565b6040516102a6919061198f565b60405180910390f35b3480156102bb57600080fd5b506102c46115c6565b6040516102d1919061198f565b60405180910390f35b3480156102e657600080fd5b506102ef6115cc565b6040516102fc9190612125565b60405180910390f35b34801561031157600080fd5b5061031a6115f0565b6040516103279190612231565b60405180910390f35b6103386117c4565b005b6000600154905090565b60008054906101000a900473ffffffffffffffffffffffffffffffffffffffff1673ffffffffffffffffffffffffffffffffffffffff163373ffffffffffffffffffffffffffffffffffffffff16146103d2576040517f08c379a00000000000000000000000000000000000000000000000000000000081526004016103c9906122c5565b60405180910390fd5b8060018190555050565b60055481565b60008054906101000a900473ffffffffffffffffffffffffffffffffffffffff1673ffffffffffffffffffffffffffffffffffffffff163373ffffffffffffffffffffffffffffffffffffffff1614610470576040517f08c379a0000000000000000000000000000000000000000000000000000000008152600401610467906122c5565b60405180910390fd5b6000479050600081116104b8576040517f08c379a00000000000000000000000000000000000000000000000000000000081526004016104af90612331565b60405180910390fd5b60008054906101000a900473ffffffffffffffffffffffffffffffffffffffff1673ffffffffffffffffffffffffffffffffffffffff166108fc829081150290604051600060405180830381858888f1935050505015801561051e573d6000803e3d6000fd5b5050565b6060600060045490506000806000600190505b8381116105c8578573ffffffffffffffffffffffffffffffffffffffff166002600083815260200190815260200160002060010160009054906101000a900473ffffffffffffffffffffffffffffffffffffffff1673ffffffffffffffffffffffffffffffffffffffff16036105b5576001836105b29190612380565b92505b80806105c0906123b4565b915050610535565b5060008267ffffffffffffffff8111156105e5576105e4611e12565b5b60405190808252806020026020018201604052801561061e57816020015b61060b6118e4565b8152602001906001900390816106035790505b5090506000600190505b848111610aca578673ffffffffffffffffffffffffffffffffffffffff166002600083815260200190815260200160002060010160009054906101000a900473ffffffffffffffffffffffffffffffffffffffff1673ffffffffffffffffffffffffffffffffffffffff1603610ab75760006002600083815260200190815260200160002090508060405180610100016040529081600082015481526020016001820160009054906101000a900473ffffffffffffffffffffffffffffffffffffffff1673ffffffffffffffffffffffffffffffffffffffff1673ffffffffffffffffffffffffffffffffffffffff16815260200160028201805461072c9061242b565b80601f01602080910402602001604051908101604052809291908181526020018280546107589061242b565b80156107a55780601f1061077a576101008083540402835291602001916107a5565b820191906000526020600020905b81548152906001019060200180831161078857829003601f168201915b505050505081526020016003820180546107be9061242b565b80601f01602080910402602001604051908101604052809291908181526020018280546107ea9061242b565b80156108375780601f1061080c57610100808354040283529160200191610837565b820191906000526020600020905b81548152906001019060200180831161081a57829003601f168201915b505050505081526020016004820180546108509061242b565b80601f016020809104026020016040519081016040528092919081815260200182805461087c9061242b565b80156108c95780601f1061089e576101008083540402835291602001916108c9565b820191906000526020600020905b8154815290600101906020018083116108ac57829003601f168201915b505050505081526020016005820180546108e29061242b565b80601f016020809104026020016040519081016040528092919081815260200182805461090e9061242b565b801561095b5780601f106109305761010080835404028352916020019161095b565b820191906000526020600020905b81548152906001019060200180831161093e57829003601f168201915b505050505081526020016006820180546109749061242b565b80601f01602080910402602001604051908101604052809291908181526020018280546109a09061242b565b80156109ed5780601f106109c2576101008083540402835291602001916109ed565b820191906000526020600020905b8154815290600101906020018083116109d057829003601f168201915b50505050508152602001600782018054610a069061242b565b80601f0160208091040260200160405190810160405280929190818152602001828054610a329061242b565b8015610a7f5780601f10610a5457610100808354040283529160200191610a7f565b820191906000526020600020905b815481529060010190602001808311610a6257829003601f168201915b505050505081525050838581518110610a9b57610a9a61245c565b5b6020026020010181905250600184610ab39190612380565b9350505b8080610ac2906123b4565b915050610628565b5080945050505050919050565b60606000600454905060008167ffffffffffffffff811115610afc57610afb611e12565b5b604051908082528060200260200182016040528015610b3557816020015b610b226118e4565b815260200190600190039081610b1a5790505b50905060005b82811015610f77576000600182610b529190612380565b905060006002600083815260200190815260200160002090508060405180610100016040529081600082015481526020016001820160009054906101000a900473ffffffffffffffffffffffffffffffffffffffff1673ffffffffffffffffffffffffffffffffffffffff1673ffffffffffffffffffffffffffffffffffffffff168152602001600282018054610be89061242b565b80601f0160208091040260200160405190810160405280929190818152602001828054610c149061242b565b8015610c615780601f10610c3657610100808354040283529160200191610c61565b820191906000526020600020905b815481529060010190602001808311610c4457829003601f168201915b50505050508152602001600382018054610c7a9061242b565b80601f0160208091040260200160405190810160405280929190818152602001828054610ca69061242b565b8015610cf35780601f10610cc857610100808354040283529160200191610cf3565b820191906000526020600020905b815481529060010190602001808311610cd657829003601f168201915b50505050508152602001600482018054610d0c9061242b565b80601f0160208091040260200160405190810160405280929190818152602001828054610d389061242b565b8015610d855780601f10610d5a57610100808354040283529160200191610d85565b820191906000526020600020905b815481529060010190602001808311610d6857829003601f168201915b50505050508152602001600582018054610d9e9061242b565b80601f0160208091040260200160405190810160405280929190818152602001828054610dca9061242b565b8015610e175780601f10610dec57610100808354040283529160200191610e17565b820191906000526020600020905b815481529060010190602001808311610dfa57829003601f168201915b50505050508152602001600682018054610e309061242b565b80601f0160208091040260200160405190810160405280929190818152602001828054610e5c9061242b565b8015610ea95780601f10610e7e57610100808354040283529160200191610ea9565b820191906000526020600020905b815481529060010190602001808311610e8c57829003601f168201915b50505050508152602001600782018054610ec29061242b565b80601f0160208091040260200160405190810160405280929190818152602001828054610eee9061242b565b8015610f3b5780601f10610f1057610100808354040283529160200191610f3b565b820191906000526020600020905b815481529060010190602001808311610f1e57829003601f168201915b505050505081525050848481518110610f5757610f5661245c565b5b602002602001018190525050508080610f6f906123b4565b915050610b3b565b50809250505090565b60008060009054906101000a900473ffffffffffffffffffffffffffffffffffffffff1673ffffffffffffffffffffffffffffffffffffffff163373ffffffffffffffffffffffffffffffffffffffff1614611011576040517f08c379a0000000000000000000000000000000000000000000000000000000008152600401611008906122c5565b60405180910390fd5b47905090565b6000806060806060806060806000600260008b815260200190815260200160002060405180610100016040529081600082015481526020016001820160009054906101000a900473ffffffffffffffffffffffffffffffffffffffff1673ffffffffffffffffffffffffffffffffffffffff1673ffffffffffffffffffffffffffffffffffffffff1681526020016002820180546110b49061242b565b80601f01602080910402602001604051908101604052809291908181526020018280546110e09061242b565b801561112d5780601f106111025761010080835404028352916020019161112d565b820191906000526020600020905b81548152906001019060200180831161111057829003601f168201915b505050505081526020016003820180546111469061242b565b80601f01602080910402602001604051908101604052809291908181526020018280546111729061242b565b80156111bf5780601f10611194576101008083540402835291602001916111bf565b820191906000526020600020905b8154815290600101906020018083116111a257829003601f168201915b505050505081526020016004820180546111d89061242b565b80601f01602080910402602001604051908101604052809291908181526020018280546112049061242b565b80156112515780601f1061122657610100808354040283529160200191611251565b820191906000526020600020905b81548152906001019060200180831161123457829003601f168201915b5050505050815260200160058201805461126a9061242b565b80601f01602080910402602001604051908101604052809291908181526020018280546112969061242b565b80156112e35780601f106112b8576101008083540402835291602001916112e3565b820191906000526020600020905b8154815290600101906020018083116112c657829003601f168201915b505050505081526020016006820180546112fc9061242b565b80601f01602080910402602001604051908101604052809291908181526020018280546113289061242b565b80156113755780601f1061134a57610100808354040283529160200191611375565b820191906000526020600020905b81548152906001019060200180831161135857829003601f168201915b5050505050815260200160078201805461138e9061242b565b80601f01602080910402602001604051908101604052809291908181526020018280546113ba9061242b565b80156114075780601f106113dc57610100808354040283529160200191611407565b820191906000526020600020905b8154815290600101906020018083116113ea57829003601f168201915b5050505050815250509050806000015181602001518260400151836060015184608001518560a001518660c001518760e001519850985098509850985098509850985050919395975091939597565b60008060608060608060046000815480929190611472906123b4565b91905055506000600454905060006002600083815260200190815260200160002090508e8160010160006101000a81548173ffffffffffffffffffffffffffffffffffffffff021916908373ffffffffffffffffffffffffffffffffffffffff1602179055508181600001819055508d8160020190816114f29190612637565b508b8160040190816115049190612637565b508c8160030190816115169190612637565b508a8160050190816115289190612637565b508981600601908161153a9190612637565b508881600701908161154c9190612637565b508e73ffffffffffffffffffffffffffffffffffffffff16827f72e070645b8753b7561512bdcd5680da44ba132de789fec82d235d43ec008d9b8d6040516115949190612709565b60405180910390a3818f8f8f8f8e97509750975097509750975050509750975097509750975097915050565b60045481565b60015481565b60008054906101000a900473ffffffffffffffffffffffffffffffffffffffff1681565b606060008054906101000a900473ffffffffffffffffffffffffffffffffffffffff1673ffffffffffffffffffffffffffffffffffffffff163373ffffffffffffffffffffffffffffffffffffffff1614611680576040517f08c379a0000000000000000000000000000000000000000000000000000000008152600401611677906122c5565b60405180910390fd5b6000600554905060008167ffffffffffffffff8111156116a3576116a2611e12565b5b6040519080825280602002602001820160405280156116dc57816020015b6116c961193f565b8152602001906001900390816116c15790505b50905060005b828110156117bb5760006001826116f99190612380565b9050600060036000838152602001908152602001600020905080604051806060016040529081600082015481526020016001820160009054906101000a900473ffffffffffffffffffffffffffffffffffffffff1673ffffffffffffffffffffffffffffffffffffffff1673ffffffffffffffffffffffffffffffffffffffff16815260200160028201548152505084848151811061179b5761179a61245c565b5b6020026020010181905250505080806117b3906123b4565b9150506116e2565b50809250505090565b60003411611807576040517f08c379a00000000000000000000000000000000000000000000000000000000081526004016117fe9061279d565b60405180910390fd5b6005600081548092919061181a906123b4565b9190505550600060055490506000600360008381526020019081526020016000209050818160000181905550338160010160006101000a81548173ffffffffffffffffffffffffffffffffffffffff021916908373ffffffffffffffffffffffffffffffffffffffff1602179055503481600201819055503373ffffffffffffffffffffffffffffffffffffffff167f264f630d9efa0d07053a31163641d9fcc0adafc9d9e76f1c37c2ce3a558d2c52346040516118d8919061198f565b60405180910390a25050565b60405180610100016040528060008152602001600073ffffffffffffffffffffffffffffffffffffffff1681526020016060815260200160608152602001606081526020016060815260200160608152602001606081525090565b604051806060016040528060008152602001600073ffffffffffffffffffffffffffffffffffffffff168152602001600081525090565b6000819050919050565b61198981611976565b82525050565b60006020820190506119a46000830184611980565b92915050565b6000604051905090565b600080fd5b600080fd5b6119c781611976565b81146119d257600080fd5b50565b6000813590506119e4816119be565b92915050565b600060208284031215611a00576119ff6119b4565b5b6000611a0e848285016119d5565b91505092915050565b600073ffffffffffffffffffffffffffffffffffffffff82169050919050565b6000611a4282611a17565b9050919050565b611a5281611a37565b8114611a5d57600080fd5b50565b600081359050611a6f81611a49565b92915050565b600060208284031215611a8b57611a8a6119b4565b5b6000611a9984828501611a60565b91505092915050565b600081519050919050565b600082825260208201905092915050565b6000819050602082019050919050565b611ad781611976565b82525050565b611ae681611a37565b82525050565b600081519050919050565b600082825260208201905092915050565b60005b83811015611b26578082015181840152602081019050611b0b565b60008484015250505050565b6000601f19601f8301169050919050565b6000611b4e82611aec565b611b588185611af7565b9350611b68818560208601611b08565b611b7181611b32565b840191505092915050565b600061010083016000830151611b956000860182611ace565b506020830151611ba86020860182611add565b5060408301518482036040860152611bc08282611b43565b91505060608301518482036060860152611bda8282611b43565b91505060808301518482036080860152611bf48282611b43565b91505060a083015184820360a0860152611c0e8282611b43565b91505060c083015184820360c0860152611c288282611b43565b91505060e083015184820360e0860152611c428282611b43565b9150508091505092915050565b6000611c5b8383611b7c565b905092915050565b6000602082019050919050565b6000611c7b82611aa2565b611c858185611aad565b935083602082028501611c9785611abe565b8060005b85811015611cd35784840389528151611cb48582611c4f565b9450611cbf83611c63565b925060208a01995050600181019050611c9b565b50829750879550505050505092915050565b60006020820190508181036000830152611cff8184611c70565b905092915050565b611d1081611a37565b82525050565b600082825260208201905092915050565b6000611d3282611aec565b611d3c8185611d16565b9350611d4c818560208601611b08565b611d5581611b32565b840191505092915050565b600061010082019050611d76600083018b611980565b611d83602083018a611d07565b8181036040830152611d958189611d27565b90508181036060830152611da98188611d27565b90508181036080830152611dbd8187611d27565b905081810360a0830152611dd18186611d27565b905081810360c0830152611de58185611d27565b905081810360e0830152611df98184611d27565b90509998505050505050505050565b600080fd5b600080fd5b7f4e487b7100000000000000000000000000000000000000000000000000000000600052604160045260246000fd5b611e4a82611b32565b810181811067ffffffffffffffff82111715611e6957611e68611e12565b5b80604052505050565b6000611e7c6119aa565b9050611e888282611e41565b919050565b600067ffffffffffffffff821115611ea857611ea7611e12565b5b611eb182611b32565b9050602081019050919050565b82818337600083830152505050565b6000611ee0611edb84611e8d565b611e72565b905082815260208101848484011115611efc57611efb611e0d565b5b611f07848285611ebe565b509392505050565b600082601f830112611f2457611f23611e08565b5b8135611f34848260208601611ecd565b91505092915050565b600080600080600080600060e0888a031215611f5c57611f5b6119b4565b5b6000611f6a8a828b01611a60565b975050602088013567ffffffffffffffff811115611f8b57611f8a6119b9565b5b611f978a828b01611f0f565b965050604088013567ffffffffffffffff811115611fb857611fb76119b9565b5b611fc48a828b01611f0f565b955050606088013567ffffffffffffffff811115611fe557611fe46119b9565b5b611ff18a828b01611f0f565b945050608088013567ffffffffffffffff811115612012576120116119b9565b5b61201e8a828b01611f0f565b93505060a088013567ffffffffffffffff81111561203f5761203e6119b9565b5b61204b8a828b01611f0f565b92505060c088013567ffffffffffffffff81111561206c5761206b6119b9565b5b6120788a828b01611f0f565b91505092959891949750929550565b600060c08201905061209c6000830189611980565b6120a96020830188611d07565b81810360408301526120bb8187611d27565b905081810360608301526120cf8186611d27565b905081810360808301526120e38185611d27565b905081810360a08301526120f78184611d27565b9050979650505050505050565b600061210f82611a17565b9050919050565b61211f81612104565b82525050565b600060208201905061213a6000830184612116565b92915050565b600081519050919050565b600082825260208201905092915050565b6000819050602082019050919050565b6060820160008201516121826000850182611ace565b5060208201516121956020850182611add565b5060408201516121a86040850182611ace565b50505050565b60006121ba838361216c565b60608301905092915050565b6000602082019050919050565b60006121de82612140565b6121e8818561214b565b93506121f38361215c565b8060005b8381101561222457815161220b88826121ae565b9750612216836121c6565b9250506001810190506121f7565b5085935050505092915050565b6000602082019050818103600083015261224b81846121d3565b905092915050565b7f4f6e6c79206f776e65722063616e2063616c6c20746869732066756e6374696f60008201527f6e00000000000000000000000000000000000000000000000000000000000000602082015250565b60006122af602183611d16565b91506122ba82612253565b604082019050919050565b600060208201905081810360008301526122de816122a2565b9050919050565b7f436f6e747261637420686173206e6f2062616c616e6365000000000000000000600082015250565b600061231b601783611d16565b9150612326826122e5565b602082019050919050565b6000602082019050818103600083015261234a8161230e565b9050919050565b7f4e487b7100000000000000000000000000000000000000000000000000000000600052601160045260246000fd5b600061238b82611976565b915061239683611976565b92508282019050808211156123ae576123ad612351565b5b92915050565b60006123bf82611976565b91507fffffffffffffffffffffffffffffffffffffffffffffffffffffffffffffffff82036123f1576123f0612351565b5b600182019050919050565b7f4e487b7100000000000000000000000000000000000000000000000000000000600052602260045260246000fd5b6000600282049050600182168061244357607f821691505b602082108103612456576124556123fc565b5b50919050565b7f4e487b7100000000000000000000000000000000000000000000000000000000600052603260045260246000fd5b60008190508160005260206000209050919050565b60006020601f8301049050919050565b600082821b905092915050565b6000600883026124ed7fffffffffffffffffffffffffffffffffffffffffffffffffffffffffffffffff826124b0565b6124f786836124b0565b95508019841693508086168417925050509392505050565b6000819050919050565b600061253461252f61252a84611976565b61250f565b611976565b9050919050565b6000819050919050565b61254e83612519565b61256261255a8261253b565b8484546124bd565b825550505050565b600090565b61257761256a565b612582818484612545565b505050565b5b818110156125a65761259b60008261256f565b600181019050612588565b5050565b601f8211156125eb576125bc8161248b565b6125c5846124a0565b810160208510156125d4578190505b6125e86125e0856124a0565b830182612587565b50505b505050565b600082821c905092915050565b600061260e600019846008026125f0565b1980831691505092915050565b600061262783836125fd565b9150826002028217905092915050565b61264082611aec565b67ffffffffffffffff81111561265957612658611e12565b5b612663825461242b565b61266e8282856125aa565b600060209050601f8311600181146126a1576000841561268f578287015190505b612699858261261b565b865550612701565b601f1984166126af8661248b565b60005b828110156126d7578489015182556001820191506020850194506020810190506126b2565b868310156126f457848901516126f0601f8916826125fd565b8355505b6001600288020188555050505b505050505050565b600060208201905081810360008301526127238184611d27565b905092915050565b7f446f6e6174696f6e20616d6f756e74206d75737420626520677265617465722060008201527f7468616e20300000000000000000000000000000000000000000000000000000602082015250565b6000612787602683611d16565b91506127928261272b565b604082019050919050565b600060208201905081810360008301526127b68161277a565b905091905056fea2646970667358221220ca47bf15ff72cf66e53da245e2dade96768443802d6c0ffdc669a33a8c67253c64736f6c63430008130033",
  "linkReferences": {},
  "deployedLinkReferences": {}
}