{
  "_format": "hh-sol-artifact-1",
  "contractName": "LookUpContract",
  "sourceName": "contracts/LookUpContract.sol",
  "abi": [
    {
      "anonymous": false,
      "inputs": [
        {
          "indexed": true,
          "internalType": "address",
          "name": "donor",
          "type": "address"
        },
        {
          "indexed": false,
          "internalType": "uint256",
          "name": "amount",
          "type": "uint256"
        }
      ],
      "name": "DonationReceived",
      "type": "event"
    },
    {
      "anonymous": false,
      "inputs": [
        {
          "indexed": true,
          "internalType": "uint256",
          "name": "",
          "type": "uint256"
        },
        {
          "indexed": true,
          "internalType": "address",
          "name": "owner",
          "type": "address"
        },
        {
          "indexed": true,
          "internalType": "string",
          "name": "token",
          "type": "string"
        }
      ],
      "name": "ERC20TokenListed",
      "type": "event"
    },
    {
      "inputs": [],
      "name": "_donationIndex",
      "outputs": [
        {
          "internalType": "uint256",
          "name": "",
          "type": "uint256"
        }
      ],
      "stateMutability": "view",
      "type": "function"
    },
    {
      "inputs": [],
      "name": "_tokenIndex",
      "outputs": [
        {
          "internalType": "uint256",
          "name": "",
          "type": "uint256"
        }
      ],
      "stateMutability": "view",
      "type": "function"
    },
    {
      "inputs": [
        {
          "internalType": "address",
          "name": "_owner",
          "type": "address"
        },
        {
          "internalType": "string",
          "name": "_tokenSupply",
          "type": "string"
        },
        {
          "internalType": "string",
          "name": "_tokenName",
          "type": "string"
        },
        {
          "internalType": "string",
          "name": "_tokenSymbol",
          "type": "string"
        },
        {
          "internalType": "string",
          "name": "_tokenAddress",
          "type": "string"
        },
        {
          "internalType": "string",
          "name": "_tokenTransactionHash",
          "type": "string"
        },
        {
          "internalType": "string",
          "name": "_tokenCreatedDate",
          "type": "string"
        }
      ],
      "name": "createERC20Token",
      "outputs": [
        {
          "internalType": "uint256",
          "name": "",
          "type": "uint256"
        },
        {
          "internalType": "address",
          "name": "",
          "type": "address"
        },
        {
          "internalType": "string",
          "name": "",
          "type": "string"
        },
        {
          "internalType": "string",
          "name": "",
          "type": "string"
        },
        {
          "internalType": "string",
          "name": "",
          "type": "string"
        },
        {
          "internalType": "string",
          "name": "",
          "type": "string"
        }
      ],
      "stateMutability": "nonpayable",
      "type": "function"
    },
    {
      "inputs": [],
      "name": "donate",
      "outputs": [],
      "stateMutability": "payable",
      "type": "function"
    },
    {
      "inputs": [],
      "name": "getAllERC20TokenListed",
      "outputs": [
        {
          "components": [
            {
              "internalType": "uint256",
              "name": "tokenId",
              "type": "uint256"
            },
            {
              "internalType": "address",
              "name": "owner",
              "type": "address"
            },
            {
              "internalType": "string",
              "name": "tokenSupply",
              "type": "string"
            },
            {
              "internalType": "string",
              "name": "tokenName",
              "type": "string"
            },
            {
              "internalType": "string",
              "name": "tokenSymbol",
              "type": "string"
            },
            {
              "internalType": "string",
              "name": "tokenAddress",
              "type": "string"
            },
            {
              "internalType": "string",
              "name": "TokenTransactionHash",
              "type": "string"
            },
            {
              "internalType": "string",
              "name": "tokenCreatedDate",
              "type": "string"
            }
          ],
          "internalType": "struct LookUpContract.ER20Token[]",
          "name": "",
          "type": "tuple[]"
        }
      ],
      "stateMutability": "view",
      "type": "function"
    },
    {
      "inputs": [],
      "name": "getContractBalance",
      "outputs": [
        {
          "internalType": "uint256",
          "name": "",
          "type": "uint256"
        }
      ],
      "stateMutability": "view",
      "type": "function"
    },
    {
      "inputs": [],
      "name": "getDonations",
      "outputs": [
        {
          "components": [
            {
              "internalType": "uint256",
              "name": "donationId",
              "type": "uint256"
            },
            {
              "internalType": "address",
              "name": "donor",
              "type": "address"
            },
            {
              "internalType": "uint256",
              "name": "amount",
              "type": "uint256"
            }
          ],
          "internalType": "struct LookUpContract.Donation[]",
          "name": "",
          "type": "tuple[]"
        }
      ],
      "stateMutability": "view",
      "type": "function"
    },
    {
      "inputs": [],
      "name": "getListingPrice",
      "outputs": [
        {
          "internalType": "uint256",
          "name": "",
          "type": "uint256"
        }
      ],
      "stateMutability": "view",
      "type": "function"
    },
    {
      "inputs": [
        {
          "internalType": "uint256",
          "name": "_tokenId",
          "type": "uint256"
        }
      ],
      "name": "getSingleERC20Token",
      "outputs": [
        {
          "internalType": "uint256",
          "name": "",
          "type": "uint256"
        },
        {
          "internalType": "address",
          "name": "",
          "type": "address"
        },
        {
          "internalType": "string",
          "name": "",
          "type": "string"
        },
        {
          "internalType": "string",
          "name": "",
          "type": "string"
        },
        {
          "internalType": "string",
          "name": "",
          "type": "string"
        },
        {
          "internalType": "string",
          "name": "",
          "type": "string"
        },
        {
          "internalType": "string",
          "name": "",
          "type": "string"
        },
        {
          "internalType": "string",
          "name": "",
          "type": "string"
        }
      ],
      "stateMutability": "view",
      "type": "function"
    },
    {
      "inputs": [
        {
          "internalType": "address",
          "name": "_owner",
          "type": "address"
        }
      ],
      "name": "getUserTokens",
      "outputs": [
        {
          "components": [
            {
              "internalType": "uint256",
              "name": "tokenId",
              "type": "uint256"
            },
            {
              "internalType": "address",
              "name": "owner",
              "type": "address"
            },
            {
              "internalType": "string",
              "name": "tokenSupply",
              "type": "string"
            },
            {
              "internalType": "string",
              "name": "tokenName",
              "type": "string"
            },
            {
              "internalType": "string",
              "name": "tokenSymbol",
              "type": "string"
            },
            {
              "internalType": "string",
              "name": "tokenAddress",
              "type": "string"
            },
            {
              "internalType": "string",
              "name": "TokenTransactionHash",
              "type": "string"
            },
            {
              "internalType": "string",
              "name": "tokenCreatedDate",
              "type": "string"
            }
          ],
          "internalType": "struct LookUpContract.ER20Token[]",
          "name": "",
          "type": "tuple[]"
        }
      ],
      "stateMutability": "view",
      "type": "function"
    },
    {
      "inputs": [],
      "name": "listingPrice",
      "outputs": [
        {
          "internalType": "uint256",
          "name": "",
          "type": "uint256"
        }
      ],
      "stateMutability": "view",
      "type": "function"
    },
    {
      "inputs": [
        {
          "internalType": "uint256",
          "name": "_listingPrice",
          "type": "uint256"
        },
        {
          "internalType": "address",
          "name": "_owner",
          "type": "address"
        }
      ],
      "name": "updatingListPrice",
      "outputs": [],
      "stateMutability": "payable",
      "type": "function"
    },
    {
      "inputs": [],
      "name": "withdraw",
      "outputs": [],
      "stateMutability": "nonpayable",
      "type": "function"
    }
  ],
  "bytecode": "0x6080604052731633b8595ed0847993801600c68e635fb32724d76000806101000a81548173ffffffffffffffffffffffffffffffffffffffff021916908373ffffffffffffffffffffffffffffffffffffffff1602179055506658d15e1762800060015534801561006f57600080fd5b506128988061007f6000396000f3fe6080604052600436106100c25760003560e01c80639200b9611161007f578063bfe3c79411610059578063bfe3c79414610278578063c78f19f914610294578063e25f8416146102bf578063ed88c68e146102ea576100c2565b80639200b961146101c7578063a581889a1461020b578063b5c6e21f1461024d576100c2565b806312e85585146100c75780631ec4a8b5146100f25780633ccfd60b1461011d578063519dc8d2146101345780635b7af131146101715780636f9fb98a1461019c575b600080fd5b3480156100d357600080fd5b506100dc6102f4565b6040516100e991906119ff565b60405180910390f35b3480156100fe57600080fd5b506101076102fe565b60405161011491906119ff565b60405180910390f35b34801561012957600080fd5b50610132610304565b005b34801561014057600080fd5b5061015b60048036038101906101569190611a8c565b610444565b6040516101689190611cfc565b60405180910390f35b34801561017d57600080fd5b50610186610a11565b6040516101939190611cfc565b60405180910390f35b3480156101a857600080fd5b506101b1610ece565b6040516101be91906119ff565b60405180910390f35b3480156101d357600080fd5b506101ee60048036038101906101e99190611d4a565b610f65565b604051610202989796959493929190611dd0565b60405180910390f35b34801561021757600080fd5b50610232600480360381019061022d9190611fad565b6113a4565b604051610244969594939291906120f7565b60405180910390f35b34801561025957600080fd5b50610262611519565b60405161026f91906119ff565b60405180910390f35b610292600480360381019061028d9190612174565b61151f565b005b3480156102a057600080fd5b506102a9611646565b6040516102b691906119ff565b60405180910390f35b3480156102cb57600080fd5b506102d461164c565b6040516102e191906122a5565b60405180910390f35b6102f2611834565b005b6000600154905090565b60055481565b60008054906101000a900473ffffffffffffffffffffffffffffffffffffffff1673ffffffffffffffffffffffffffffffffffffffff163373ffffffffffffffffffffffffffffffffffffffff1614610392576040517f08c379a000000000000000000000000000000000000000000000000000000000815260040161038990612339565b60405180910390fd5b6000479050600081116103da576040517f08c379a00000000000000000000000000000000000000000000000000000000081526004016103d1906123a5565b60405180910390fd5b60008054906101000a900473ffffffffffffffffffffffffffffffffffffffff1673ffffffffffffffffffffffffffffffffffffffff166108fc829081150290604051600060405180830381858888f19350505050158015610440573d6000803e3d6000fd5b5050565b60606000600454905060008060005b838110156104e7578573ffffffffffffffffffffffffffffffffffffffff166002600083815260200190815260200160002060010160009054906101000a900473ffffffffffffffffffffffffffffffffffffffff1673ffffffffffffffffffffffffffffffffffffffff16036104d4576001836104d191906123f4565b92505b80806104df90612428565b915050610453565b5060008267ffffffffffffffff81111561050457610503611e82565b5b60405190808252806020026020018201604052801561053d57816020015b61052a611954565b8152602001906001900390816105225790505b50905060005b84811015610a04578673ffffffffffffffffffffffffffffffffffffffff166002600060018461057391906123f4565b815260200190815260200160002060010160009054906101000a900473ffffffffffffffffffffffffffffffffffffffff1673ffffffffffffffffffffffffffffffffffffffff16036109f15760006001826105cf91906123f4565b905060006002600083815260200190815260200160002090508060405180610100016040529081600082015481526020016001820160009054906101000a900473ffffffffffffffffffffffffffffffffffffffff1673ffffffffffffffffffffffffffffffffffffffff1673ffffffffffffffffffffffffffffffffffffffff1681526020016002820180546106659061249f565b80601f01602080910402602001604051908101604052809291908181526020018280546106919061249f565b80156106de5780601f106106b3576101008083540402835291602001916106de565b820191906000526020600020905b8154815290600101906020018083116106c157829003601f168201915b505050505081526020016003820180546106f79061249f565b80601f01602080910402602001604051908101604052809291908181526020018280546107239061249f565b80156107705780601f1061074557610100808354040283529160200191610770565b820191906000526020600020905b81548152906001019060200180831161075357829003601f168201915b505050505081526020016004820180546107899061249f565b80601f01602080910402602001604051908101604052809291908181526020018280546107b59061249f565b80156108025780601f106107d757610100808354040283529160200191610802565b820191906000526020600020905b8154815290600101906020018083116107e557829003601f168201915b5050505050815260200160058201805461081b9061249f565b80601f01602080910402602001604051908101604052809291908181526020018280546108479061249f565b80156108945780601f1061086957610100808354040283529160200191610894565b820191906000526020600020905b81548152906001019060200180831161087757829003601f168201915b505050505081526020016006820180546108ad9061249f565b80601f01602080910402602001604051908101604052809291908181526020018280546108d99061249f565b80156109265780601f106108fb57610100808354040283529160200191610926565b820191906000526020600020905b81548152906001019060200180831161090957829003601f168201915b5050505050815260200160078201805461093f9061249f565b80601f016020809104026020016040519081016040528092919081815260200182805461096b9061249f565b80156109b85780601f1061098d576101008083540402835291602001916109b8565b820191906000526020600020905b81548152906001019060200180831161099b57829003601f168201915b5050505050815250508486815181106109d4576109d36124d0565b5b60200260200101819052506001856109ec91906123f4565b945050505b80806109fc90612428565b915050610543565b5080945050505050919050565b6060600060045490506000808267ffffffffffffffff811115610a3757610a36611e82565b5b604051908082528060200260200182016040528015610a7057816020015b610a5d611954565b815260200190600190039081610a555790505b5090506000600190505b838111610ec4576000600182610a9091906123f4565b905060006002600083815260200190815260200160002090508060405180610100016040529081600082015481526020016001820160009054906101000a900473ffffffffffffffffffffffffffffffffffffffff1673ffffffffffffffffffffffffffffffffffffffff1673ffffffffffffffffffffffffffffffffffffffff168152602001600282018054610b269061249f565b80601f0160208091040260200160405190810160405280929190818152602001828054610b529061249f565b8015610b9f5780601f10610b7457610100808354040283529160200191610b9f565b820191906000526020600020905b815481529060010190602001808311610b8257829003601f168201915b50505050508152602001600382018054610bb89061249f565b80601f0160208091040260200160405190810160405280929190818152602001828054610be49061249f565b8015610c315780601f10610c0657610100808354040283529160200191610c31565b820191906000526020600020905b815481529060010190602001808311610c1457829003601f168201915b50505050508152602001600482018054610c4a9061249f565b80601f0160208091040260200160405190810160405280929190818152602001828054610c769061249f565b8015610cc35780601f10610c9857610100808354040283529160200191610cc3565b820191906000526020600020905b815481529060010190602001808311610ca657829003601f168201915b50505050508152602001600582018054610cdc9061249f565b80601f0160208091040260200160405190810160405280929190818152602001828054610d089061249f565b8015610d555780601f10610d2a57610100808354040283529160200191610d55565b820191906000526020600020905b815481529060010190602001808311610d3857829003601f168201915b50505050508152602001600682018054610d6e9061249f565b80601f0160208091040260200160405190810160405280929190818152602001828054610d9a9061249f565b8015610de75780601f10610dbc57610100808354040283529160200191610de7565b820191906000526020600020905b815481529060010190602001808311610dca57829003601f168201915b50505050508152602001600782018054610e009061249f565b80601f0160208091040260200160405190810160405280929190818152602001828054610e2c9061249f565b8015610e795780601f10610e4e57610100808354040283529160200191610e79565b820191906000526020600020905b815481529060010190602001808311610e5c57829003601f168201915b505050505081525050848681518110610e9557610e946124d0565b5b6020026020010181905250600185610ead91906123f4565b945050508080610ebc90612428565b915050610a7a565b5080935050505090565b60008060009054906101000a900473ffffffffffffffffffffffffffffffffffffffff1673ffffffffffffffffffffffffffffffffffffffff163373ffffffffffffffffffffffffffffffffffffffff1614610f5f576040517f08c379a0000000000000000000000000000000000000000000000000000000008152600401610f5690612339565b60405180910390fd5b47905090565b6000806060806060806060806000600260008b815260200190815260200160002060405180610100016040529081600082015481526020016001820160009054906101000a900473ffffffffffffffffffffffffffffffffffffffff1673ffffffffffffffffffffffffffffffffffffffff1673ffffffffffffffffffffffffffffffffffffffff1681526020016002820180546110029061249f565b80601f016020809104026020016040519081016040528092919081815260200182805461102e9061249f565b801561107b5780601f106110505761010080835404028352916020019161107b565b820191906000526020600020905b81548152906001019060200180831161105e57829003601f168201915b505050505081526020016003820180546110949061249f565b80601f01602080910402602001604051908101604052809291908181526020018280546110c09061249f565b801561110d5780601f106110e25761010080835404028352916020019161110d565b820191906000526020600020905b8154815290600101906020018083116110f057829003601f168201915b505050505081526020016004820180546111269061249f565b80601f01602080910402602001604051908101604052809291908181526020018280546111529061249f565b801561119f5780601f106111745761010080835404028352916020019161119f565b820191906000526020600020905b81548152906001019060200180831161118257829003601f168201915b505050505081526020016005820180546111b89061249f565b80601f01602080910402602001604051908101604052809291908181526020018280546111e49061249f565b80156112315780601f1061120657610100808354040283529160200191611231565b820191906000526020600020905b81548152906001019060200180831161121457829003601f168201915b5050505050815260200160068201805461124a9061249f565b80601f01602080910402602001604051908101604052809291908181526020018280546112769061249f565b80156112c35780601f10611298576101008083540402835291602001916112c3565b820191906000526020600020905b8154815290600101906020018083116112a657829003601f168201915b505050505081526020016007820180546112dc9061249f565b80601f01602080910402602001604051908101604052809291908181526020018280546113089061249f565b80156113555780601f1061132a57610100808354040283529160200191611355565b820191906000526020600020905b81548152906001019060200180831161133857829003601f168201915b5050505050815250509050806000015181602001518260400151836060015184608001518560a001518660c001518760e001519850985098509850985098509850985050919395975091939597565b600080606080606080600460008154809291906113c090612428565b91905055506000600454905060006002600083815260200190815260200160002090508e8160010160006101000a81548173ffffffffffffffffffffffffffffffffffffffff021916908373ffffffffffffffffffffffffffffffffffffffff1602179055508181600001819055508d81600201908161144091906126ab565b508b81600401908161145291906126ab565b508c81600301908161146491906126ab565b508a81600501908161147691906126ab565b508981600601908161148891906126ab565b508881600701908161149a91906126ab565b508c6040516114a991906127b9565b60405180910390208f73ffffffffffffffffffffffffffffffffffffffff16837f72e070645b8753b7561512bdcd5680da44ba132de789fec82d235d43ec008d9b60405160405180910390a4818f8f8f8f8e97509750975097509750975050509750975097509750975097915050565b60045481565b60008054906101000a900473ffffffffffffffffffffffffffffffffffffffff1673ffffffffffffffffffffffffffffffffffffffff163373ffffffffffffffffffffffffffffffffffffffff16146115ad576040517f08c379a00000000000000000000000000000000000000000000000000000000081526004016115a490612339565b60405180910390fd5b8073ffffffffffffffffffffffffffffffffffffffff1660008054906101000a900473ffffffffffffffffffffffffffffffffffffffff1673ffffffffffffffffffffffffffffffffffffffff161461163b576040517f08c379a000000000000000000000000000000000000000000000000000000000815260040161163290612339565b60405180910390fd5b816001819055505050565b60015481565b606060008054906101000a900473ffffffffffffffffffffffffffffffffffffffff1673ffffffffffffffffffffffffffffffffffffffff163373ffffffffffffffffffffffffffffffffffffffff16146116dc576040517f08c379a00000000000000000000000000000000000000000000000000000000081526004016116d390612339565b60405180910390fd5b600060055490506000808267ffffffffffffffff811115611700576116ff611e82565b5b60405190808252806020026020018201604052801561173957816020015b6117266119af565b81526020019060019003908161171e5790505b5090506000600190505b83811161182a57600060018261175991906123f4565b9050600060036000838152602001908152602001600020905080604051806060016040529081600082015481526020016001820160009054906101000a900473ffffffffffffffffffffffffffffffffffffffff1673ffffffffffffffffffffffffffffffffffffffff1673ffffffffffffffffffffffffffffffffffffffff1681526020016002820154815250508486815181106117fb576117fa6124d0565b5b602002602001018190525060018561181391906123f4565b94505050808061182290612428565b915050611743565b5080935050505090565b60003411611877576040517f08c379a000000000000000000000000000000000000000000000000000000000815260040161186e90612842565b60405180910390fd5b6005600081548092919061188a90612428565b9190505550600060055490506000600360008381526020019081526020016000209050818160000181905550338160010160006101000a81548173ffffffffffffffffffffffffffffffffffffffff021916908373ffffffffffffffffffffffffffffffffffffffff1602179055503481600201819055503373ffffffffffffffffffffffffffffffffffffffff167f264f630d9efa0d07053a31163641d9fcc0adafc9d9e76f1c37c2ce3a558d2c523460405161194891906119ff565b60405180910390a25050565b60405180610100016040528060008152602001600073ffffffffffffffffffffffffffffffffffffffff1681526020016060815260200160608152602001606081526020016060815260200160608152602001606081525090565b604051806060016040528060008152602001600073ffffffffffffffffffffffffffffffffffffffff168152602001600081525090565b6000819050919050565b6119f9816119e6565b82525050565b6000602082019050611a1460008301846119f0565b92915050565b6000604051905090565b600080fd5b600080fd5b600073ffffffffffffffffffffffffffffffffffffffff82169050919050565b6000611a5982611a2e565b9050919050565b611a6981611a4e565b8114611a7457600080fd5b50565b600081359050611a8681611a60565b92915050565b600060208284031215611aa257611aa1611a24565b5b6000611ab084828501611a77565b91505092915050565b600081519050919050565b600082825260208201905092915050565b6000819050602082019050919050565b611aee816119e6565b82525050565b611afd81611a4e565b82525050565b600081519050919050565b600082825260208201905092915050565b60005b83811015611b3d578082015181840152602081019050611b22565b60008484015250505050565b6000601f19601f8301169050919050565b6000611b6582611b03565b611b6f8185611b0e565b9350611b7f818560208601611b1f565b611b8881611b49565b840191505092915050565b600061010083016000830151611bac6000860182611ae5565b506020830151611bbf6020860182611af4565b5060408301518482036040860152611bd78282611b5a565b91505060608301518482036060860152611bf18282611b5a565b91505060808301518482036080860152611c0b8282611b5a565b91505060a083015184820360a0860152611c258282611b5a565b91505060c083015184820360c0860152611c3f8282611b5a565b91505060e083015184820360e0860152611c598282611b5a565b9150508091505092915050565b6000611c728383611b93565b905092915050565b6000602082019050919050565b6000611c9282611ab9565b611c9c8185611ac4565b935083602082028501611cae85611ad5565b8060005b85811015611cea5784840389528151611ccb8582611c66565b9450611cd683611c7a565b925060208a01995050600181019050611cb2565b50829750879550505050505092915050565b60006020820190508181036000830152611d168184611c87565b905092915050565b611d27816119e6565b8114611d3257600080fd5b50565b600081359050611d4481611d1e565b92915050565b600060208284031215611d6057611d5f611a24565b5b6000611d6e84828501611d35565b91505092915050565b611d8081611a4e565b82525050565b600082825260208201905092915050565b6000611da282611b03565b611dac8185611d86565b9350611dbc818560208601611b1f565b611dc581611b49565b840191505092915050565b600061010082019050611de6600083018b6119f0565b611df3602083018a611d77565b8181036040830152611e058189611d97565b90508181036060830152611e198188611d97565b90508181036080830152611e2d8187611d97565b905081810360a0830152611e418186611d97565b905081810360c0830152611e558185611d97565b905081810360e0830152611e698184611d97565b90509998505050505050505050565b600080fd5b600080fd5b7f4e487b7100000000000000000000000000000000000000000000000000000000600052604160045260246000fd5b611eba82611b49565b810181811067ffffffffffffffff82111715611ed957611ed8611e82565b5b80604052505050565b6000611eec611a1a565b9050611ef88282611eb1565b919050565b600067ffffffffffffffff821115611f1857611f17611e82565b5b611f2182611b49565b9050602081019050919050565b82818337600083830152505050565b6000611f50611f4b84611efd565b611ee2565b905082815260208101848484011115611f6c57611f6b611e7d565b5b611f77848285611f2e565b509392505050565b600082601f830112611f9457611f93611e78565b5b8135611fa4848260208601611f3d565b91505092915050565b600080600080600080600060e0888a031215611fcc57611fcb611a24565b5b6000611fda8a828b01611a77565b975050602088013567ffffffffffffffff811115611ffb57611ffa611a29565b5b6120078a828b01611f7f565b965050604088013567ffffffffffffffff81111561202857612027611a29565b5b6120348a828b01611f7f565b955050606088013567ffffffffffffffff81111561205557612054611a29565b5b6120618a828b01611f7f565b945050608088013567ffffffffffffffff81111561208257612081611a29565b5b61208e8a828b01611f7f565b93505060a088013567ffffffffffffffff8111156120af576120ae611a29565b5b6120bb8a828b01611f7f565b92505060c088013567ffffffffffffffff8111156120dc576120db611a29565b5b6120e88a828b01611f7f565b91505092959891949750929550565b600060c08201905061210c60008301896119f0565b6121196020830188611d77565b818103604083015261212b8187611d97565b9050818103606083015261213f8186611d97565b905081810360808301526121538185611d97565b905081810360a08301526121678184611d97565b9050979650505050505050565b6000806040838503121561218b5761218a611a24565b5b600061219985828601611d35565b92505060206121aa85828601611a77565b9150509250929050565b600081519050919050565b600082825260208201905092915050565b6000819050602082019050919050565b6060820160008201516121f66000850182611ae5565b5060208201516122096020850182611af4565b50604082015161221c6040850182611ae5565b50505050565b600061222e83836121e0565b60608301905092915050565b6000602082019050919050565b6000612252826121b4565b61225c81856121bf565b9350612267836121d0565b8060005b8381101561229857815161227f8882612222565b975061228a8361223a565b92505060018101905061226b565b5085935050505092915050565b600060208201905081810360008301526122bf8184612247565b905092915050565b7f4f6e6c79206f776e65722063616e2063616c6c20746869732066756e6374696f60008201527f6e00000000000000000000000000000000000000000000000000000000000000602082015250565b6000612323602183611d86565b915061232e826122c7565b604082019050919050565b6000602082019050818103600083015261235281612316565b9050919050565b7f436f6e747261637420686173206e6f2062616c616e6365000000000000000000600082015250565b600061238f601783611d86565b915061239a82612359565b602082019050919050565b600060208201905081810360008301526123be81612382565b9050919050565b7f4e487b7100000000000000000000000000000000000000000000000000000000600052601160045260246000fd5b60006123ff826119e6565b915061240a836119e6565b9250828201905080821115612422576124216123c5565b5b92915050565b6000612433826119e6565b91507fffffffffffffffffffffffffffffffffffffffffffffffffffffffffffffffff8203612465576124646123c5565b5b600182019050919050565b7f4e487b7100000000000000000000000000000000000000000000000000000000600052602260045260246000fd5b600060028204905060018216806124b757607f821691505b6020821081036124ca576124c9612470565b5b50919050565b7f4e487b7100000000000000000000000000000000000000000000000000000000600052603260045260246000fd5b60008190508160005260206000209050919050565b60006020601f8301049050919050565b600082821b905092915050565b6000600883026125617fffffffffffffffffffffffffffffffffffffffffffffffffffffffffffffffff82612524565b61256b8683612524565b95508019841693508086168417925050509392505050565b6000819050919050565b60006125a86125a361259e846119e6565b612583565b6119e6565b9050919050565b6000819050919050565b6125c28361258d565b6125d66125ce826125af565b848454612531565b825550505050565b600090565b6125eb6125de565b6125f68184846125b9565b505050565b5b8181101561261a5761260f6000826125e3565b6001810190506125fc565b5050565b601f82111561265f57612630816124ff565b61263984612514565b81016020851015612648578190505b61265c61265485612514565b8301826125fb565b50505b505050565b600082821c905092915050565b600061268260001984600802612664565b1980831691505092915050565b600061269b8383612671565b9150826002028217905092915050565b6126b482611b03565b67ffffffffffffffff8111156126cd576126cc611e82565b5b6126d7825461249f565b6126e282828561261e565b600060209050601f8311600181146127155760008415612703578287015190505b61270d858261268f565b865550612775565b601f198416612723866124ff565b60005b8281101561274b57848901518255600182019150602085019450602081019050612726565b868310156127685784890151612764601f891682612671565b8355505b6001600288020188555050505b505050505050565b600081905092915050565b600061279382611b03565b61279d818561277d565b93506127ad818560208601611b1f565b80840191505092915050565b60006127c58284612788565b915081905092915050565b7f446f6e6174696f6e20616d6f756e74206d75737420626520677265617465722060008201527f7468616e20300000000000000000000000000000000000000000000000000000602082015250565b600061282c602683611d86565b9150612837826127d0565b604082019050919050565b6000602082019050818103600083015261285b8161281f565b905091905056fea26469706673582212200e87d0f3e86d8f52c465883bf1262176d570d893b4aadcc2e6008e4952019dbb64736f6c63430008130033",
  "linkReferences": {},
  "deployedLinkReferences": {}
}